8=FIX.4.2|9=67|35=A|49=CLIENT|56=BROKER|34=1|52=20260124-14:31:13.761|98=0|108=30|10=129|
8=FIX.4.2|9=132|35=D|49=CLIENT|56=BROKER|34=2|52=20260124-14:31:13.761|11=ORD68915|21=1|55=AMD|54=1|60=20260124-14:31:13.761|38=3300|40=2|44=206.13|10=045|
8=FIX.4.2|9=150|35=8|49=CLIENT|56=BROKER|34=3|52=20260124-14:31:13.761|37=ORD22302|17=EXEC37519|150=2|39=2|55=TSLA|54=1|38=100|32=100|31=150.00|151=0|14=100|6=150.00|10=127|
8=FIX.4.2|9=150|35=8|49=CLIENT|56=BROKER|34=4|52=20260124-14:31:13.761|37=ORD66723|17=EXEC61093|150=2|39=2|55=NVDA|54=1|38=100|32=100|31=150.00|151=0|14=100|6=150.00|10=126|
8=FIX.4.2|9=55|35=5|49=CLIENT|56=BROKER|34=5|52=20260124-14:31:13.761|10=093|
