8=FIX.4.2|9=67|35=A|49=CLIENT|56=BROKER|34=1|52=20260124-15:03:01.161|98=0|108=30|10=120|
8=FIX.4.2|9=132|35=D|49=CLIENT|56=BROKER|34=2|52=20260124-15:03:01.161|11=ORD68915|21=1|55=AMD|54=1|60=20260124-15:03:01.161|38=3300|40=2|44=206.13|10=027|
8=FIX.4.2|9=150|35=8|49=CLIENT|56=BROKER|34=3|52=20260124-15:03:01.161|37=ORD22302|17=EXEC37519|150=2|39=2|55=TSLA|54=1|38=100|32=100|31=150.00|151=0|14=100|6=150.00|10=118|
8=FIX.4.2|9=151|35=8|49=CLIENT|56=BROKER|34=4|52=20260124-15:03:01.161|37=ORD66723|17=EXEC61093|150=2|39=2|55=NVDA|54=1|38=100|32=100|31=150.00|151=0|14=100|6=150.00|10=118|
8=FIX.4.2|9=80|35=H|49=CLIENT|56=BROKER|34=5|52=20260124-15:03:01.161|11=ORD10276|55=AVGO|54=2|10=152|
8=FIX.4.2|9=133|35=D|49=CLIENT|56=BROKER|34=6|52=20260124-15:03:01.161|11=ORD13335|21=1|55=AMD|54=1|60=20260124-15:03:01.161|38=4100|40=2|44=127.53|10=023|
8=FIX.4.2|9=80|35=H|49=CLIENT|56=BROKER|34=7|52=20260124-15:03:01.161|11=ORD11206|55=TSLA|54=1|10=154|
8=FIX.4.2|9=150|35=8|49=CLIENT|56=BROKER|34=8|52=20260124-15:03:01.161|37=ORD39057|17=EXEC79157|150=2|39=2|55=NVDA|54=1|38=100|32=100|31=150.00|151=0|14=100|6=150.00|10=131|
8=FIX.4.2|9=150|35=8|49=CLIENT|56=BROKER|34=9|52=20260124-15:03:01.161|37=ORD40550|17=EXEC82464|150=2|39=2|55=AVGO|54=1|38=100|32=100|31=150.00|151=0|14=100|6=150.00|10=122|
8=FIX.4.2|9=56|35=5|49=CLIENT|56=BROKER|34=10|52=20260124-15:03:01.161|10=129|
